{
  "contractName": "Test1",
  "abi": [
    {
      "inputs": [],
      "stateMutability": "nonpayable",
      "type": "constructor"
    },
    {
      "inputs": [],
      "name": "Str",
      "outputs": [
        {
          "internalType": "string",
          "name": "",
          "type": "string"
        }
      ],
      "stateMutability": "view",
      "type": "function",
      "constant": true
    },
    {
      "inputs": [
        {
          "internalType": "string",
          "name": "nm",
          "type": "string"
        }
      ],
      "name": "setString",
      "outputs": [],
      "stateMutability": "nonpayable",
      "type": "function"
    },
    {
      "inputs": [],
      "name": "getString",
      "outputs": [
        {
          "internalType": "string",
          "name": "",
          "type": "string"
        }
      ],
      "stateMutability": "view",
      "type": "function",
      "constant": true
    }
  ],
  "bytecode": "0x60806040523480156200001157600080fd5b506040518060400160405280600781526020017f556e6b6e6f776e0000000000000000000000000000000000000000000000000081525060009081620000589190620002df565b50620003c6565b600081519050919050565b7f4e487b7100000000000000000000000000000000000000000000000000000000600052604160045260246000fd5b7f4e487b7100000000000000000000000000000000000000000000000000000000600052602260045260246000fd5b60006002820490506001821680620000e157607f821691505b602082108103620000f757620000f662000099565b5b50919050565b60008190508160005260206000209050919050565b60006020601f8301049050919050565b60008160020a8302905092915050565b600060088302620001647fffffffffffffffffffffffffffffffffffffffffffffffffffffffffffffffff8262000122565b62000170868362000122565b95508019841693508086168417925050509392505050565b6000819050919050565b6000819050919050565b6000620001bd620001b7620001b18462000188565b62000192565b62000188565b9050919050565b6000819050919050565b620001d9836200019c565b620001f1620001e882620001c4565b84845462000132565b825550505050565b600090565b62000208620001f9565b62000215818484620001ce565b505050565b5b818110156200023d5762000231600082620001fe565b6001810190506200021b565b5050565b601f8211156200028c576200025681620000fd565b620002618462000112565b8101602085101562000271578190505b62000289620002808562000112565b8301826200021a565b50505b505050565b60008160020a8304905092915050565b6000620002b46000198460080262000291565b1980831691505092915050565b6000620002cf8383620002a1565b9150826002028217905092915050565b620002ea826200005f565b67ffffffffffffffff8111156200030657620003056200006a565b5b620003128254620000c8565b6200031f82828562000241565b600060209050601f83116001811462000357576000841562000342578287015190505b6200034e8582620002c1565b865550620003be565b601f1984166200036786620000fd565b60005b8281101562000391578489015182556001820191506020850194506020810190506200036a565b86831015620003b15784890151620003ad601f891682620002a1565b8355505b6001600288020188555050505b505050505050565b61075f80620003d66000396000f3fe608060405234801561001057600080fd5b506004361061005e576000357c01000000000000000000000000000000000000000000000000000000009004806359f0bd1b146100635780637fcaf6661461008157806389ea642f1461009d575b600080fd5b61006b6100bb565b6040516100789190610287565b60405180910390f35b61009b600480360381019061009691906103f2565b610149565b005b6100a561015c565b6040516100b29190610287565b60405180910390f35b600080546100c89061046a565b80601f01602080910402602001604051908101604052809291908181526020018280546100f49061046a565b80156101415780601f1061011657610100808354040283529160200191610141565b820191906000526020600020905b81548152906001019060200180831161012457829003601f168201915b505050505081565b80600090816101589190610657565b5050565b60606000805461016b9061046a565b80601f01602080910402602001604051908101604052809291908181526020018280546101979061046a565b80156101e45780601f106101b9576101008083540402835291602001916101e4565b820191906000526020600020905b8154815290600101906020018083116101c757829003601f168201915b5050505050905090565b600081519050919050565b600082825260208201905092915050565b60005b8381101561022857808201518184015260208101905061020d565b83811115610237576000848401525b50505050565b6000601f19601f8301169050919050565b6000610259826101ee565b61026381856101f9565b935061027381856020860161020a565b61027c8161023d565b840191505092915050565b600060208201905081810360008301526102a1818461024e565b905092915050565b6000604051905090565b600080fd5b600080fd5b600080fd5b600080fd5b7f4e487b7100000000000000000000000000000000000000000000000000000000600052604160045260246000fd5b6102ff8261023d565b810181811067ffffffffffffffff8211171561031e5761031d6102c7565b5b80604052505050565b60006103316102a9565b905061033d82826102f6565b919050565b600067ffffffffffffffff82111561035d5761035c6102c7565b5b6103668261023d565b9050602081019050919050565b82818337600083830152505050565b600061039561039084610342565b610327565b9050828152602081018484840111156103b1576103b06102c2565b5b6103bc848285610373565b509392505050565b600082601f8301126103d9576103d86102bd565b5b81356103e9848260208601610382565b91505092915050565b600060208284031215610408576104076102b3565b5b600082013567ffffffffffffffff811115610426576104256102b8565b5b610432848285016103c4565b91505092915050565b7f4e487b7100000000000000000000000000000000000000000000000000000000600052602260045260246000fd5b6000600282049050600182168061048257607f821691505b6020821081036104955761049461043b565b5b50919050565b60008190508160005260206000209050919050565b60006020601f8301049050919050565b60008160020a8302905092915050565b6000600883026105007fffffffffffffffffffffffffffffffffffffffffffffffffffffffffffffffff826104c0565b61050a86836104c0565b95508019841693508086168417925050509392505050565b6000819050919050565b6000819050919050565b600061055161054c61054784610522565b61052c565b610522565b9050919050565b6000819050919050565b61056b83610536565b61057f61057782610558565b8484546104d0565b825550505050565b600090565b610594610587565b61059f818484610562565b505050565b5b818110156105c3576105b860008261058c565b6001810190506105a5565b5050565b601f821115610608576105d98161049b565b6105e2846104b0565b810160208510156105f1578190505b6106056105fd856104b0565b8301826105a4565b50505b505050565b60008160020a8304905092915050565b600061062e6000198460080261060d565b1980831691505092915050565b6000610647838361061d565b9150826002028217905092915050565b610660826101ee565b67ffffffffffffffff811115610679576106786102c7565b5b610683825461046a565b61068e8282856105c7565b600060209050601f8311600181146106c157600084156106af578287015190505b6106b9858261063b565b865550610721565b601f1984166106cf8661049b565b60005b828110156106f7578489015182556001820191506020850194506020810190506106d2565b868310156107145784890151610710601f89168261061d565b8355505b6001600288020188555050505b50505050505056fea264697066735822122066188ed5d3c2160aa93d2054e9eed451db424d707053c39c77639f7c132c446264736f6c634300080f0033",
  "immutableReferences": {},
  "source": "//SPDX-License-Identifier: MIT\r\n\r\npragma solidity >=0.4.0 <=0.9.0;\r\n\r\ncontract Test1 {\r\n    string public Str;\r\n    constructor() public {\r\n        Str = \"Unknown\";\r\n    }\r\n    \r\n    function setString(string memory nm) public{\r\n        Str = nm ;\r\n    }\r\n\r\n    function getString() public view returns(string memory){\r\n        return Str;\r\n    }\r\n}",
  "sourcePath": "C:\\Users\\techn\\OneDrive\\Documents\\FYP\\Solidity\\contracts\\test1.sol",
  "compiler": {
    "name": "solc",
    "version": "0.8.15+commit.e14f2714.Emscripten.clang"
  },
  "schemaVersion": "3.4.13",
  "updatedAt": "2023-03-27T14:50:46.249Z",
  "networkType": "ethereum",
  "devdoc": {
    "kind": "dev",
    "methods": {},
    "version": 1
  },
  "userdoc": {
    "kind": "user",
    "methods": {},
    "version": 1
  }
}